{"abi":[{"type":"constructor","inputs":[],"stateMutability":"nonpayable"},{"type":"function","name":"approve","inputs":[{"name":"to","type":"address","internalType":"address"},{"name":"tokenId","type":"uint256","internalType":"uint256"}],"outputs":[],"stateMutability":"nonpayable"},{"type":"function","name":"balanceOf","inputs":[{"name":"owner","type":"address","internalType":"address"}],"outputs":[{"name":"","type":"uint256","internalType":"uint256"}],"stateMutability":"view"},{"type":"function","name":"getApproved","inputs":[{"name":"tokenId","type":"uint256","internalType":"uint256"}],"outputs":[{"name":"","type":"address","internalType":"address"}],"stateMutability":"view"},{"type":"function","name":"isApprovedForAll","inputs":[{"name":"owner","type":"address","internalType":"address"},{"name":"operator","type":"address","internalType":"address"}],"outputs":[{"name":"","type":"bool","internalType":"bool"}],"stateMutability":"view"},{"type":"function","name":"mint","inputs":[{"name":"tokenId","type":"uint256","internalType":"uint256"}],"outputs":[],"stateMutability":"nonpayable"},{"type":"function","name":"name","inputs":[],"outputs":[{"name":"","type":"string","internalType":"string"}],"stateMutability":"view"},{"type":"function","name":"ownerOf","inputs":[{"name":"tokenId","type":"uint256","internalType":"uint256"}],"outputs":[{"name":"","type":"address","internalType":"address"}],"stateMutability":"view"},{"type":"function","name":"safeTransferFrom","inputs":[{"name":"from","type":"address","internalType":"address"},{"name":"to","type":"address","internalType":"address"},{"name":"tokenId","type":"uint256","internalType":"uint256"}],"outputs":[],"stateMutability":"nonpayable"},{"type":"function","name":"safeTransferFrom","inputs":[{"name":"from","type":"address","internalType":"address"},{"name":"to","type":"address","internalType":"address"},{"name":"tokenId","type":"uint256","internalType":"uint256"},{"name":"data","type":"bytes","internalType":"bytes"}],"outputs":[],"stateMutability":"nonpayable"},{"type":"function","name":"setApprovalForAll","inputs":[{"name":"operator","type":"address","internalType":"address"},{"name":"approved","type":"bool","internalType":"bool"}],"outputs":[],"stateMutability":"nonpayable"},{"type":"function","name":"supportsInterface","inputs":[{"name":"interfaceId","type":"bytes4","internalType":"bytes4"}],"outputs":[{"name":"","type":"bool","internalType":"bool"}],"stateMutability":"view"},{"type":"function","name":"symbol","inputs":[],"outputs":[{"name":"","type":"string","internalType":"string"}],"stateMutability":"view"},{"type":"function","name":"tokenExists","inputs":[{"name":"","type":"uint256","internalType":"uint256"}],"outputs":[{"name":"","type":"bool","internalType":"bool"}],"stateMutability":"view"},{"type":"function","name":"tokenURI","inputs":[{"name":"tokenId","type":"uint256","internalType":"uint256"}],"outputs":[{"name":"","type":"string","internalType":"string"}],"stateMutability":"view"},{"type":"function","name":"transferFrom","inputs":[{"name":"from","type":"address","internalType":"address"},{"name":"to","type":"address","internalType":"address"},{"name":"tokenId","type":"uint256","internalType":"uint256"}],"outputs":[],"stateMutability":"nonpayable"},{"type":"function","name":"withdraw","inputs":[],"outputs":[],"stateMutability":"nonpayable"},{"type":"event","name":"Approval","inputs":[{"name":"owner","type":"address","indexed":true,"internalType":"address"},{"name":"approved","type":"address","indexed":true,"internalType":"address"},{"name":"tokenId","type":"uint256","indexed":true,"internalType":"uint256"}],"anonymous":false},{"type":"event","name":"ApprovalForAll","inputs":[{"name":"owner","type":"address","indexed":true,"internalType":"address"},{"name":"operator","type":"address","indexed":true,"internalType":"address"},{"name":"approved","type":"bool","indexed":false,"internalType":"bool"}],"anonymous":false},{"type":"event","name":"Transfer","inputs":[{"name":"from","type":"address","indexed":true,"internalType":"address"},{"name":"to","type":"address","indexed":true,"internalType":"address"},{"name":"tokenId","type":"uint256","indexed":true,"internalType":"uint256"}],"anonymous":false},{"type":"error","name":"ERC721IncorrectOwner","inputs":[{"name":"sender","type":"address","internalType":"address"},{"name":"tokenId","type":"uint256","internalType":"uint256"},{"name":"owner","type":"address","internalType":"address"}]},{"type":"error","name":"ERC721InsufficientApproval","inputs":[{"name":"operator","type":"address","internalType":"address"},{"name":"tokenId","type":"uint256","internalType":"uint256"}]},{"type":"error","name":"ERC721InvalidApprover","inputs":[{"name":"approver","type":"address","internalType":"address"}]},{"type":"error","name":"ERC721InvalidOperator","inputs":[{"name":"operator","type":"address","internalType":"address"}]},{"type":"error","name":"ERC721InvalidOwner","inputs":[{"name":"owner","type":"address","internalType":"address"}]},{"type":"error","name":"ERC721InvalidReceiver","inputs":[{"name":"receiver","type":"address","internalType":"address"}]},{"type":"error","name":"ERC721InvalidSender","inputs":[{"name":"sender","type":"address","internalType":"address"}]},{"type":"error","name":"ERC721NonexistentToken","inputs":[{"name":"tokenId","type":"uint256","internalType":"uint256"}]}],"bytecode":{"object":"0x60806040523480156200001157600080fd5b506040518060400160405280600881526020016713539254d513919560c21b8152506040518060400160405280600581526020016413539254d560da1b815250816000908162000062919062000121565b50600162000071828262000121565b505050620001ed565b634e487b7160e01b600052604160045260246000fd5b600181811c90821680620000a557607f821691505b602082108103620000c657634e487b7160e01b600052602260045260246000fd5b50919050565b601f8211156200011c576000816000526020600020601f850160051c81016020861015620000f75750805b601f850160051c820191505b81811015620001185782815560010162000103565b5050505b505050565b81516001600160401b038111156200013d576200013d6200007a565b62000155816200014e845462000090565b84620000cc565b602080601f8311600181146200018d5760008415620001745750858301515b600019600386901b1c1916600185901b17855562000118565b600085815260208120601f198616915b82811015620001be578886015182559484019460019091019084016200019d565b5085821015620001dd5787850151600019600388901b60f8161c191681555b5050505050600190811b01905550565b61112f80620001fd6000396000f3fe608060405234801561001057600080fd5b50600436106100ff5760003560e01c80636352211e11610097578063a22cb46511610066578063a22cb46514610221578063b88d4fde14610234578063c87b56dd14610247578063e985e9c51461025a57600080fd5b80636352211e146101d257806370a08231146101e557806395d89b4114610206578063a0712d681461020e57600080fd5b8063095ea7b3116100d3578063095ea7b31461018f57806323b872dd146101a45780633ccfd60b146101b757806342842e0e146101bf57600080fd5b8062923f9e1461010457806301ffc9a71461013c57806306fdde031461014f578063081812fc14610164575b600080fd5b610127610112366004610d64565b60066020526000908152604090205460ff1681565b60405190151581526020015b60405180910390f35b61012761014a366004610d93565b61026d565b6101576102bf565b6040516101339190610e00565b610177610172366004610d64565b610351565b6040516001600160a01b039091168152602001610133565b6101a261019d366004610e2f565b61037a565b005b6101a26101b2366004610e59565b610389565b6101a2610419565b6101a26101cd366004610e59565b6104a6565b6101776101e0366004610d64565b6104c6565b6101f86101f3366004610e95565b6104d1565b604051908152602001610133565b610157610519565b6101a261021c366004610d64565b610528565b6101a261022f366004610eb0565b6105c7565b6101a2610242366004610f02565b6105d2565b610157610255366004610d64565b6105e9565b610127610268366004610fde565b61065e565b60006001600160e01b031982166380ac58cd60e01b148061029e57506001600160e01b03198216635b5e139f60e01b145b806102b957506301ffc9a760e01b6001600160e01b03198316145b92915050565b6060600080546102ce90611011565b80601f01602080910402602001604051908101604052809291908181526020018280546102fa90611011565b80156103475780601f1061031c57610100808354040283529160200191610347565b820191906000526020600020905b81548152906001019060200180831161032a57829003601f168201915b5050505050905090565b600061035c8261068c565b506000828152600460205260409020546001600160a01b03166102b9565b6103858282336106c5565b5050565b6001600160a01b0382166103b857604051633250574960e11b8152600060048201526024015b60405180910390fd5b60006103c58383336106d2565b9050836001600160a01b0316816001600160a01b031614610413576040516364283d7b60e01b81526001600160a01b03808616600483015260248201849052821660448201526064016103af565b50505050565b604051600090339047908381818185875af1925050503d806000811461045b576040519150601f19603f3d011682016040523d82523d6000602084013e610460565b606091505b50509050806104a35760405162461bcd60e51b815260206004820152600f60248201526e151c985b9cd9995c8819985a5b1959608a1b60448201526064016103af565b50565b6104c1838383604051806020016040528060008152506105d2565b505050565b60006102b98261068c565b60006001600160a01b0382166104fd576040516322718ad960e21b8152600060048201526024016103af565b506001600160a01b031660009081526003602052604090205490565b6060600180546102ce90611011565b60008181526006602052604090205460ff161561057f5760405162461bcd60e51b8152602060048201526015602482015274546f6b656e20616c7265616479206d696e7465642160581b60448201526064016103af565b60008181526006602052604090205460ff16156105a4576105a181600a61104b565b90505b6000818152600660205260409020805460ff191660011790556104a333826107cb565b6103853383836107e5565b6105dd848484610389565b61041384848484610884565b60606105f48261068c565b50600061060c60408051602081019091526000815290565b9050600081511161062c5760405180602001604052806000815250610657565b80610636846109ad565b604051602001610647929190611070565b6040516020818303038152906040525b9392505050565b6001600160a01b03918216600090815260056020908152604080832093909416825291909152205460ff1690565b6000818152600260205260408120546001600160a01b0316806102b957604051637e27328960e01b8152600481018490526024016103af565b6104c18383836001610a40565b6000828152600260205260408120546001600160a01b03908116908316156106ff576106ff818486610b46565b6001600160a01b0381161561073d5761071c600085600080610a40565b6001600160a01b038116600090815260036020526040902080546000190190555b6001600160a01b0385161561076c576001600160a01b0385166000908152600360205260409020805460010190555b60008481526002602052604080822080546001600160a01b0319166001600160a01b0389811691821790925591518793918516917fddf252ad1be2c89b69c2b068fc378daa952ba7f163c4a11628f55a4df523b3ef91a4949350505050565b610385828260405180602001604052806000815250610baa565b6001600160a01b03821661081757604051630b61174360e31b81526001600160a01b03831660048201526024016103af565b6001600160a01b03838116600081815260056020908152604080832094871680845294825291829020805460ff191686151590811790915591519182527f17307eab39ab6107e8899845ad3d59bd9653f200f220920489ca2b5937696c31910160405180910390a3505050565b6001600160a01b0383163b1561041357604051630a85bd0160e11b81526001600160a01b0384169063150b7a02906108c690339088908790879060040161109f565b6020604051808303816000875af1925050508015610901575060408051601f3d908101601f191682019092526108fe918101906110dc565b60015b61096a573d80801561092f576040519150601f19603f3d011682016040523d82523d6000602084013e610934565b606091505b50805160000361096257604051633250574960e11b81526001600160a01b03851660048201526024016103af565b805181602001fd5b6001600160e01b03198116630a85bd0160e11b146109a657604051633250574960e11b81526001600160a01b03851660048201526024016103af565b5050505050565b606060006109ba83610bc1565b600101905060008167ffffffffffffffff8111156109da576109da610eec565b6040519080825280601f01601f191660200182016040528015610a04576020820181803683370190505b5090508181016020015b600019016f181899199a1a9b1b9c1cb0b131b232b360811b600a86061a8153600a8504945084610a0e57509392505050565b8080610a5457506001600160a01b03821615155b15610b16576000610a648461068c565b90506001600160a01b03831615801590610a905750826001600160a01b0316816001600160a01b031614155b8015610aa35750610aa1818461065e565b155b15610acc5760405163a9fbf51f60e01b81526001600160a01b03841660048201526024016103af565b8115610b145783856001600160a01b0316826001600160a01b03167f8c5be1e5ebec7d5bd14f71427d1e84f3dd0314c0f7b2291e5b200ac8c7c3b92560405160405180910390a45b505b5050600090815260046020526040902080546001600160a01b0319166001600160a01b0392909216919091179055565b610b51838383610c99565b6104c1576001600160a01b038316610b7f57604051637e27328960e01b8152600481018290526024016103af565b60405163177e802f60e01b81526001600160a01b0383166004820152602481018290526044016103af565b610bb48383610cff565b6104c16000848484610884565b60008072184f03e93ff9f4daa797ed6e38ed64bf6a1f0160401b8310610c005772184f03e93ff9f4daa797ed6e38ed64bf6a1f0160401b830492506040015b6d04ee2d6d415b85acef81000000008310610c2c576d04ee2d6d415b85acef8100000000830492506020015b662386f26fc100008310610c4a57662386f26fc10000830492506010015b6305f5e1008310610c62576305f5e100830492506008015b6127108310610c7657612710830492506004015b60648310610c88576064830492506002015b600a83106102b95760010192915050565b60006001600160a01b03831615801590610cf75750826001600160a01b0316846001600160a01b03161480610cd35750610cd3848461065e565b80610cf757506000828152600460205260409020546001600160a01b038481169116145b949350505050565b6001600160a01b038216610d2957604051633250574960e11b8152600060048201526024016103af565b6000610d37838360006106d2565b90506001600160a01b038116156104c1576040516339e3563760e11b8152600060048201526024016103af565b600060208284031215610d7657600080fd5b5035919050565b6001600160e01b0319811681146104a357600080fd5b600060208284031215610da557600080fd5b813561065781610d7d565b60005b83811015610dcb578181015183820152602001610db3565b50506000910152565b60008151808452610dec816020860160208601610db0565b601f01601f19169290920160200192915050565b6020815260006106576020830184610dd4565b80356001600160a01b0381168114610e2a57600080fd5b919050565b60008060408385031215610e4257600080fd5b610e4b83610e13565b946020939093013593505050565b600080600060608486031215610e6e57600080fd5b610e7784610e13565b9250610e8560208501610e13565b9150604084013590509250925092565b600060208284031215610ea757600080fd5b61065782610e13565b60008060408385031215610ec357600080fd5b610ecc83610e13565b915060208301358015158114610ee157600080fd5b809150509250929050565b634e487b7160e01b600052604160045260246000fd5b60008060008060808587031215610f1857600080fd5b610f2185610e13565b9350610f2f60208601610e13565b925060408501359150606085013567ffffffffffffffff80821115610f5357600080fd5b818701915087601f830112610f6757600080fd5b813581811115610f7957610f79610eec565b604051601f8201601f19908116603f01168101908382118183101715610fa157610fa1610eec565b816040528281528a6020848701011115610fba57600080fd5b82602086016020830137600060208483010152809550505050505092959194509250565b60008060408385031215610ff157600080fd5b610ffa83610e13565b915061100860208401610e13565b90509250929050565b600181811c9082168061102557607f821691505b60208210810361104557634e487b7160e01b600052602260045260246000fd5b50919050565b80820281158282048414176102b957634e487b7160e01b600052601160045260246000fd5b60008351611082818460208801610db0565b835190830190611096818360208801610db0565b01949350505050565b6001600160a01b03858116825284166020820152604081018390526080606082018190526000906110d290830184610dd4565b9695505050505050565b6000602082840312156110ee57600080fd5b815161065781610d7d56fea264697066735822122017209ba1c8f3f558cd8cb62e99ea2c06893c02f86193320cd506e813a7f87c3d64736f6c63430008170033","linkReferences":{}},"methodIdentifiers":{"approve(address,uint256)":"095ea7b3","balanceOf(address)":"70a08231","getApproved(uint256)":"081812fc","isApprovedForAll(address,address)":"e985e9c5","mint(uint256)":"a0712d68","name()":"06fdde03","ownerOf(uint256)":"6352211e","safeTransferFrom(address,address,uint256)":"42842e0e","safeTransferFrom(address,address,uint256,bytes)":"b88d4fde","setApprovalForAll(address,bool)":"a22cb465","supportsInterface(bytes4)":"01ffc9a7","symbol()":"95d89b41","tokenExists(uint256)":"00923f9e","tokenURI(uint256)":"c87b56dd","transferFrom(address,address,uint256)":"23b872dd","withdraw()":"3ccfd60b"},"id":11}