{"abi":[{"type":"constructor","inputs":[],"stateMutability":"nonpayable"},{"type":"function","name":"approve","inputs":[{"name":"to","type":"address","internalType":"address"},{"name":"tokenId","type":"uint256","internalType":"uint256"}],"outputs":[],"stateMutability":"nonpayable"},{"type":"function","name":"balanceOf","inputs":[{"name":"owner","type":"address","internalType":"address"}],"outputs":[{"name":"","type":"uint256","internalType":"uint256"}],"stateMutability":"view"},{"type":"function","name":"getApproved","inputs":[{"name":"tokenId","type":"uint256","internalType":"uint256"}],"outputs":[{"name":"","type":"address","internalType":"address"}],"stateMutability":"view"},{"type":"function","name":"isApprovedForAll","inputs":[{"name":"owner","type":"address","internalType":"address"},{"name":"operator","type":"address","internalType":"address"}],"outputs":[{"name":"","type":"bool","internalType":"bool"}],"stateMutability":"view"},{"type":"function","name":"mint","inputs":[{"name":"tokenId","type":"uint256","internalType":"uint256"}],"outputs":[],"stateMutability":"payable"},{"type":"function","name":"mintPrice","inputs":[],"outputs":[{"name":"","type":"uint256","internalType":"uint256"}],"stateMutability":"view"},{"type":"function","name":"name","inputs":[],"outputs":[{"name":"","type":"string","internalType":"string"}],"stateMutability":"view"},{"type":"function","name":"ownerOf","inputs":[{"name":"tokenId","type":"uint256","internalType":"uint256"}],"outputs":[{"name":"","type":"address","internalType":"address"}],"stateMutability":"view"},{"type":"function","name":"safeTransferFrom","inputs":[{"name":"from","type":"address","internalType":"address"},{"name":"to","type":"address","internalType":"address"},{"name":"tokenId","type":"uint256","internalType":"uint256"}],"outputs":[],"stateMutability":"nonpayable"},{"type":"function","name":"safeTransferFrom","inputs":[{"name":"from","type":"address","internalType":"address"},{"name":"to","type":"address","internalType":"address"},{"name":"tokenId","type":"uint256","internalType":"uint256"},{"name":"data","type":"bytes","internalType":"bytes"}],"outputs":[],"stateMutability":"nonpayable"},{"type":"function","name":"setApprovalForAll","inputs":[{"name":"operator","type":"address","internalType":"address"},{"name":"approved","type":"bool","internalType":"bool"}],"outputs":[],"stateMutability":"nonpayable"},{"type":"function","name":"supportsInterface","inputs":[{"name":"interfaceId","type":"bytes4","internalType":"bytes4"}],"outputs":[{"name":"","type":"bool","internalType":"bool"}],"stateMutability":"view"},{"type":"function","name":"symbol","inputs":[],"outputs":[{"name":"","type":"string","internalType":"string"}],"stateMutability":"view"},{"type":"function","name":"tokenExists","inputs":[{"name":"","type":"uint256","internalType":"uint256"}],"outputs":[{"name":"","type":"bool","internalType":"bool"}],"stateMutability":"view"},{"type":"function","name":"tokenURI","inputs":[{"name":"tokenId","type":"uint256","internalType":"uint256"}],"outputs":[{"name":"","type":"string","internalType":"string"}],"stateMutability":"view"},{"type":"function","name":"transferFrom","inputs":[{"name":"from","type":"address","internalType":"address"},{"name":"to","type":"address","internalType":"address"},{"name":"tokenId","type":"uint256","internalType":"uint256"}],"outputs":[],"stateMutability":"nonpayable"},{"type":"function","name":"withdraw","inputs":[],"outputs":[],"stateMutability":"nonpayable"},{"type":"event","name":"Approval","inputs":[{"name":"owner","type":"address","indexed":true,"internalType":"address"},{"name":"approved","type":"address","indexed":true,"internalType":"address"},{"name":"tokenId","type":"uint256","indexed":true,"internalType":"uint256"}],"anonymous":false},{"type":"event","name":"ApprovalForAll","inputs":[{"name":"owner","type":"address","indexed":true,"internalType":"address"},{"name":"operator","type":"address","indexed":true,"internalType":"address"},{"name":"approved","type":"bool","indexed":false,"internalType":"bool"}],"anonymous":false},{"type":"event","name":"Transfer","inputs":[{"name":"from","type":"address","indexed":true,"internalType":"address"},{"name":"to","type":"address","indexed":true,"internalType":"address"},{"name":"tokenId","type":"uint256","indexed":true,"internalType":"uint256"}],"anonymous":false},{"type":"error","name":"ERC721IncorrectOwner","inputs":[{"name":"sender","type":"address","internalType":"address"},{"name":"tokenId","type":"uint256","internalType":"uint256"},{"name":"owner","type":"address","internalType":"address"}]},{"type":"error","name":"ERC721InsufficientApproval","inputs":[{"name":"operator","type":"address","internalType":"address"},{"name":"tokenId","type":"uint256","internalType":"uint256"}]},{"type":"error","name":"ERC721InvalidApprover","inputs":[{"name":"approver","type":"address","internalType":"address"}]},{"type":"error","name":"ERC721InvalidOperator","inputs":[{"name":"operator","type":"address","internalType":"address"}]},{"type":"error","name":"ERC721InvalidOwner","inputs":[{"name":"owner","type":"address","internalType":"address"}]},{"type":"error","name":"ERC721InvalidReceiver","inputs":[{"name":"receiver","type":"address","internalType":"address"}]},{"type":"error","name":"ERC721InvalidSender","inputs":[{"name":"sender","type":"address","internalType":"address"}]},{"type":"error","name":"ERC721NonexistentToken","inputs":[{"name":"tokenId","type":"uint256","internalType":"uint256"}]}],"bytecode":{"object":"0x60806040526611c37937e080006006553480156200001c57600080fd5b506040518060400160405280600881526020016713539254d513919560c21b8152506040518060400160405280600581526020016413539254d560da1b81525081600090816200006d91906200012c565b5060016200007c82826200012c565b505050620001f8565b634e487b7160e01b600052604160045260246000fd5b600181811c90821680620000b057607f821691505b602082108103620000d157634e487b7160e01b600052602260045260246000fd5b50919050565b601f82111562000127576000816000526020600020601f850160051c81016020861015620001025750805b601f850160051c820191505b8181101562000123578281556001016200010e565b5050505b505050565b81516001600160401b0381111562000148576200014862000085565b62000160816200015984546200009b565b84620000d7565b602080601f8311600181146200019857600084156200017f5750858301515b600019600386901b1c1916600185901b17855562000123565b600085815260208120601f198616915b82811015620001c957888601518255948401946001909101908401620001a8565b5085821015620001e85787850151600019600388901b60f8161c191681555b5050505050600190811b01905550565b61124e80620002086000396000f3fe6080604052600436106100fd5760003560e01c80636352211e11610095578063a0712d6811610064578063a0712d68146102b1578063a22cb465146102c4578063b88d4fde146102e4578063c87b56dd14610304578063e985e9c51461032457600080fd5b80636352211e146102385780636817c76c1461025857806370a082311461027c57806395d89b411461029c57600080fd5b8063095ea7b3116100d1578063095ea7b3146101c157806323b872dd146101e35780633ccfd60b1461020357806342842e0e1461021857600080fd5b8062923f9e1461010257806301ffc9a71461014757806306fdde0314610167578063081812fc14610189575b600080fd5b34801561010e57600080fd5b5061013261011d366004610e83565b60076020526000908152604090205460ff1681565b60405190151581526020015b60405180910390f35b34801561015357600080fd5b50610132610162366004610eb2565b610344565b34801561017357600080fd5b5061017c610396565b60405161013e9190610f1f565b34801561019557600080fd5b506101a96101a4366004610e83565b610428565b6040516001600160a01b03909116815260200161013e565b3480156101cd57600080fd5b506101e16101dc366004610f4e565b610451565b005b3480156101ef57600080fd5b506101e16101fe366004610f78565b610460565b34801561020f57600080fd5b506101e16104f0565b34801561022457600080fd5b506101e1610233366004610f78565b61057d565b34801561024457600080fd5b506101a9610253366004610e83565b61059d565b34801561026457600080fd5b5061026e60065481565b60405190815260200161013e565b34801561028857600080fd5b5061026e610297366004610fb4565b6105a8565b3480156102a857600080fd5b5061017c6105f0565b6101e16102bf366004610e83565b6105ff565b3480156102d057600080fd5b506101e16102df366004610fcf565b6106e6565b3480156102f057600080fd5b506101e16102ff366004611021565b6106f1565b34801561031057600080fd5b5061017c61031f366004610e83565b610708565b34801561033057600080fd5b5061013261033f3660046110fd565b61077d565b60006001600160e01b031982166380ac58cd60e01b148061037557506001600160e01b03198216635b5e139f60e01b145b8061039057506301ffc9a760e01b6001600160e01b03198316145b92915050565b6060600080546103a590611130565b80601f01602080910402602001604051908101604052809291908181526020018280546103d190611130565b801561041e5780601f106103f35761010080835404028352916020019161041e565b820191906000526020600020905b81548152906001019060200180831161040157829003601f168201915b5050505050905090565b6000610433826107ab565b506000828152600460205260409020546001600160a01b0316610390565b61045c8282336107e4565b5050565b6001600160a01b03821661048f57604051633250574960e11b8152600060048201526024015b60405180910390fd5b600061049c8383336107f1565b9050836001600160a01b0316816001600160a01b0316146104ea576040516364283d7b60e01b81526001600160a01b0380861660048301526024820184905282166044820152606401610486565b50505050565b604051600090339047908381818185875af1925050503d8060008114610532576040519150601f19603f3d011682016040523d82523d6000602084013e610537565b606091505b505090508061057a5760405162461bcd60e51b815260206004820152600f60248201526e151c985b9cd9995c8819985a5b1959608a1b6044820152606401610486565b50565b610598838383604051806020016040528060008152506106f1565b505050565b6000610390826107ab565b60006001600160a01b0382166105d4576040516322718ad960e21b815260006004820152602401610486565b506001600160a01b031660009081526003602052604090205490565b6060600180546103a590611130565b60065434146106475760405162461bcd60e51b8152602060048201526014602482015273496e636f7272656374206d696e7420707269636560601b6044820152606401610486565b60008181526007602052604090205460ff161561069e5760405162461bcd60e51b8152602060048201526015602482015274546f6b656e20616c7265616479206d696e7465642160581b6044820152606401610486565b60008181526007602052604090205460ff16156106c3576106c081600a61116a565b90505b6000818152600760205260409020805460ff1916600117905561057a33826108ea565b61045c338383610904565b6106fc848484610460565b6104ea848484846109a3565b6060610713826107ab565b50600061072b60408051602081019091526000815290565b9050600081511161074b5760405180602001604052806000815250610776565b8061075584610acc565b60405160200161076692919061118f565b6040516020818303038152906040525b9392505050565b6001600160a01b03918216600090815260056020908152604080832093909416825291909152205460ff1690565b6000818152600260205260408120546001600160a01b03168061039057604051637e27328960e01b815260048101849052602401610486565b6105988383836001610b5f565b6000828152600260205260408120546001600160a01b039081169083161561081e5761081e818486610c65565b6001600160a01b0381161561085c5761083b600085600080610b5f565b6001600160a01b038116600090815260036020526040902080546000190190555b6001600160a01b0385161561088b576001600160a01b0385166000908152600360205260409020805460010190555b60008481526002602052604080822080546001600160a01b0319166001600160a01b0389811691821790925591518793918516917fddf252ad1be2c89b69c2b068fc378daa952ba7f163c4a11628f55a4df523b3ef91a4949350505050565b61045c828260405180602001604052806000815250610cc9565b6001600160a01b03821661093657604051630b61174360e31b81526001600160a01b0383166004820152602401610486565b6001600160a01b03838116600081815260056020908152604080832094871680845294825291829020805460ff191686151590811790915591519182527f17307eab39ab6107e8899845ad3d59bd9653f200f220920489ca2b5937696c31910160405180910390a3505050565b6001600160a01b0383163b156104ea57604051630a85bd0160e11b81526001600160a01b0384169063150b7a02906109e59033908890879087906004016111be565b6020604051808303816000875af1925050508015610a20575060408051601f3d908101601f19168201909252610a1d918101906111fb565b60015b610a89573d808015610a4e576040519150601f19603f3d011682016040523d82523d6000602084013e610a53565b606091505b508051600003610a8157604051633250574960e11b81526001600160a01b0385166004820152602401610486565b805181602001fd5b6001600160e01b03198116630a85bd0160e11b14610ac557604051633250574960e11b81526001600160a01b0385166004820152602401610486565b5050505050565b60606000610ad983610ce0565b600101905060008167ffffffffffffffff811115610af957610af961100b565b6040519080825280601f01601f191660200182016040528015610b23576020820181803683370190505b5090508181016020015b600019016f181899199a1a9b1b9c1cb0b131b232b360811b600a86061a8153600a8504945084610b2d57509392505050565b8080610b7357506001600160a01b03821615155b15610c35576000610b83846107ab565b90506001600160a01b03831615801590610baf5750826001600160a01b0316816001600160a01b031614155b8015610bc25750610bc0818461077d565b155b15610beb5760405163a9fbf51f60e01b81526001600160a01b0384166004820152602401610486565b8115610c335783856001600160a01b0316826001600160a01b03167f8c5be1e5ebec7d5bd14f71427d1e84f3dd0314c0f7b2291e5b200ac8c7c3b92560405160405180910390a45b505b5050600090815260046020526040902080546001600160a01b0319166001600160a01b0392909216919091179055565b610c70838383610db8565b610598576001600160a01b038316610c9e57604051637e27328960e01b815260048101829052602401610486565b60405163177e802f60e01b81526001600160a01b038316600482015260248101829052604401610486565b610cd38383610e1e565b61059860008484846109a3565b60008072184f03e93ff9f4daa797ed6e38ed64bf6a1f0160401b8310610d1f5772184f03e93ff9f4daa797ed6e38ed64bf6a1f0160401b830492506040015b6d04ee2d6d415b85acef81000000008310610d4b576d04ee2d6d415b85acef8100000000830492506020015b662386f26fc100008310610d6957662386f26fc10000830492506010015b6305f5e1008310610d81576305f5e100830492506008015b6127108310610d9557612710830492506004015b60648310610da7576064830492506002015b600a83106103905760010192915050565b60006001600160a01b03831615801590610e165750826001600160a01b0316846001600160a01b03161480610df25750610df2848461077d565b80610e1657506000828152600460205260409020546001600160a01b038481169116145b949350505050565b6001600160a01b038216610e4857604051633250574960e11b815260006004820152602401610486565b6000610e56838360006107f1565b90506001600160a01b03811615610598576040516339e3563760e11b815260006004820152602401610486565b600060208284031215610e9557600080fd5b5035919050565b6001600160e01b03198116811461057a57600080fd5b600060208284031215610ec457600080fd5b813561077681610e9c565b60005b83811015610eea578181015183820152602001610ed2565b50506000910152565b60008151808452610f0b816020860160208601610ecf565b601f01601f19169290920160200192915050565b6020815260006107766020830184610ef3565b80356001600160a01b0381168114610f4957600080fd5b919050565b60008060408385031215610f6157600080fd5b610f6a83610f32565b946020939093013593505050565b600080600060608486031215610f8d57600080fd5b610f9684610f32565b9250610fa460208501610f32565b9150604084013590509250925092565b600060208284031215610fc657600080fd5b61077682610f32565b60008060408385031215610fe257600080fd5b610feb83610f32565b91506020830135801515811461100057600080fd5b809150509250929050565b634e487b7160e01b600052604160045260246000fd5b6000806000806080858703121561103757600080fd5b61104085610f32565b935061104e60208601610f32565b925060408501359150606085013567ffffffffffffffff8082111561107257600080fd5b818701915087601f83011261108657600080fd5b8135818111156110985761109861100b565b604051601f8201601f19908116603f011681019083821181831017156110c0576110c061100b565b816040528281528a60208487010111156110d957600080fd5b82602086016020830137600060208483010152809550505050505092959194509250565b6000806040838503121561111057600080fd5b61111983610f32565b915061112760208401610f32565b90509250929050565b600181811c9082168061114457607f821691505b60208210810361116457634e487b7160e01b600052602260045260246000fd5b50919050565b808202811582820484141761039057634e487b7160e01b600052601160045260246000fd5b600083516111a1818460208801610ecf565b8351908301906111b5818360208801610ecf565b01949350505050565b6001600160a01b03858116825284166020820152604081018390526080606082018190526000906111f190830184610ef3565b9695505050505050565b60006020828403121561120d57600080fd5b815161077681610e9c56fea264697066735822122025ba7c5bb89c78dc720abfa18068b922bb354e4e4ef5a5965a12fbc3d42bbf9d64736f6c63430008170033","linkReferences":{}},"methodIdentifiers":{"approve(address,uint256)":"095ea7b3","balanceOf(address)":"70a08231","getApproved(uint256)":"081812fc","isApprovedForAll(address,address)":"e985e9c5","mint(uint256)":"a0712d68","mintPrice()":"6817c76c","name()":"06fdde03","ownerOf(uint256)":"6352211e","safeTransferFrom(address,address,uint256)":"42842e0e","safeTransferFrom(address,address,uint256,bytes)":"b88d4fde","setApprovalForAll(address,bool)":"a22cb465","supportsInterface(bytes4)":"01ffc9a7","symbol()":"95d89b41","tokenExists(uint256)":"00923f9e","tokenURI(uint256)":"c87b56dd","transferFrom(address,address,uint256)":"23b872dd","withdraw()":"3ccfd60b"},"id":11}