{"abi":[{"type":"constructor","inputs":[],"stateMutability":"nonpayable"},{"type":"fallback","stateMutability":"payable"},{"type":"receive","stateMutability":"payable"},{"type":"function","name":"approve","inputs":[{"name":"to","type":"address","internalType":"address"},{"name":"tokenId","type":"uint256","internalType":"uint256"}],"outputs":[],"stateMutability":"nonpayable"},{"type":"function","name":"balanceOf","inputs":[{"name":"owner","type":"address","internalType":"address"}],"outputs":[{"name":"","type":"uint256","internalType":"uint256"}],"stateMutability":"view"},{"type":"function","name":"getApproved","inputs":[{"name":"tokenId","type":"uint256","internalType":"uint256"}],"outputs":[{"name":"","type":"address","internalType":"address"}],"stateMutability":"view"},{"type":"function","name":"getBalance","inputs":[],"outputs":[{"name":"","type":"uint256","internalType":"uint256"}],"stateMutability":"view"},{"type":"function","name":"isApprovedForAll","inputs":[{"name":"owner","type":"address","internalType":"address"},{"name":"operator","type":"address","internalType":"address"}],"outputs":[{"name":"","type":"bool","internalType":"bool"}],"stateMutability":"view"},{"type":"function","name":"mint","inputs":[{"name":"tokenId","type":"uint256","internalType":"uint256"}],"outputs":[],"stateMutability":"nonpayable"},{"type":"function","name":"name","inputs":[],"outputs":[{"name":"","type":"string","internalType":"string"}],"stateMutability":"view"},{"type":"function","name":"onERC721Received","inputs":[{"name":"operator","type":"address","internalType":"address"},{"name":"from","type":"address","internalType":"address"},{"name":"tokenId","type":"uint256","internalType":"uint256"},{"name":"data","type":"bytes","internalType":"bytes"}],"outputs":[{"name":"","type":"bytes4","internalType":"bytes4"}],"stateMutability":"nonpayable"},{"type":"function","name":"ownerOf","inputs":[{"name":"tokenId","type":"uint256","internalType":"uint256"}],"outputs":[{"name":"","type":"address","internalType":"address"}],"stateMutability":"view"},{"type":"function","name":"safeTransferFrom","inputs":[{"name":"from","type":"address","internalType":"address"},{"name":"to","type":"address","internalType":"address"},{"name":"tokenId","type":"uint256","internalType":"uint256"}],"outputs":[],"stateMutability":"nonpayable"},{"type":"function","name":"safeTransferFrom","inputs":[{"name":"from","type":"address","internalType":"address"},{"name":"to","type":"address","internalType":"address"},{"name":"tokenId","type":"uint256","internalType":"uint256"},{"name":"data","type":"bytes","internalType":"bytes"}],"outputs":[],"stateMutability":"nonpayable"},{"type":"function","name":"setApprovalForAll","inputs":[{"name":"operator","type":"address","internalType":"address"},{"name":"approved","type":"bool","internalType":"bool"}],"outputs":[],"stateMutability":"nonpayable"},{"type":"function","name":"supportsInterface","inputs":[{"name":"interfaceId","type":"bytes4","internalType":"bytes4"}],"outputs":[{"name":"","type":"bool","internalType":"bool"}],"stateMutability":"view"},{"type":"function","name":"symbol","inputs":[],"outputs":[{"name":"","type":"string","internalType":"string"}],"stateMutability":"view"},{"type":"function","name":"tokenExists","inputs":[{"name":"","type":"uint256","internalType":"uint256"}],"outputs":[{"name":"","type":"bool","internalType":"bool"}],"stateMutability":"view"},{"type":"function","name":"tokenURI","inputs":[{"name":"tokenId","type":"uint256","internalType":"uint256"}],"outputs":[{"name":"","type":"string","internalType":"string"}],"stateMutability":"view"},{"type":"function","name":"transferFrom","inputs":[{"name":"from","type":"address","internalType":"address"},{"name":"to","type":"address","internalType":"address"},{"name":"tokenId","type":"uint256","internalType":"uint256"}],"outputs":[],"stateMutability":"nonpayable"},{"type":"event","name":"Approval","inputs":[{"name":"owner","type":"address","indexed":true,"internalType":"address"},{"name":"approved","type":"address","indexed":true,"internalType":"address"},{"name":"tokenId","type":"uint256","indexed":true,"internalType":"uint256"}],"anonymous":false},{"type":"event","name":"ApprovalForAll","inputs":[{"name":"owner","type":"address","indexed":true,"internalType":"address"},{"name":"operator","type":"address","indexed":true,"internalType":"address"},{"name":"approved","type":"bool","indexed":false,"internalType":"bool"}],"anonymous":false},{"type":"event","name":"Transfer","inputs":[{"name":"from","type":"address","indexed":true,"internalType":"address"},{"name":"to","type":"address","indexed":true,"internalType":"address"},{"name":"tokenId","type":"uint256","indexed":true,"internalType":"uint256"}],"anonymous":false},{"type":"error","name":"ERC721IncorrectOwner","inputs":[{"name":"sender","type":"address","internalType":"address"},{"name":"tokenId","type":"uint256","internalType":"uint256"},{"name":"owner","type":"address","internalType":"address"}]},{"type":"error","name":"ERC721InsufficientApproval","inputs":[{"name":"operator","type":"address","internalType":"address"},{"name":"tokenId","type":"uint256","internalType":"uint256"}]},{"type":"error","name":"ERC721InvalidApprover","inputs":[{"name":"approver","type":"address","internalType":"address"}]},{"type":"error","name":"ERC721InvalidOperator","inputs":[{"name":"operator","type":"address","internalType":"address"}]},{"type":"error","name":"ERC721InvalidOwner","inputs":[{"name":"owner","type":"address","internalType":"address"}]},{"type":"error","name":"ERC721InvalidReceiver","inputs":[{"name":"receiver","type":"address","internalType":"address"}]},{"type":"error","name":"ERC721InvalidSender","inputs":[{"name":"sender","type":"address","internalType":"address"}]},{"type":"error","name":"ERC721NonexistentToken","inputs":[{"name":"tokenId","type":"uint256","internalType":"uint256"}]}],"bytecode":{"object":"0x60806040523480156200001157600080fd5b506040518060400160405280600881526020016713539254d513919560c21b8152506040518060400160405280600581526020016413539254d560da1b815250816000908162000062919062000121565b50600162000071828262000121565b505050620001ed565b634e487b7160e01b600052604160045260246000fd5b600181811c90821680620000a557607f821691505b602082108103620000c657634e487b7160e01b600052602260045260246000fd5b50919050565b601f8211156200011c576000816000526020600020601f850160051c81016020861015620000f75750805b601f850160051c820191505b81811015620001185782815560010162000103565b5050505b505050565b81516001600160401b038111156200013d576200013d6200007a565b62000155816200014e845462000090565b84620000cc565b602080601f8311600181146200018d5760008415620001745750858301515b600019600386901b1c1916600185901b17855562000118565b600085815260208120601f198616915b82811015620001be578886015182559484019460019091019084016200019d565b5085821015620001dd5787850151600019600388901b60f8161c191681555b5050505050600190811b01905550565b61123c80620001fd6000396000f3fe6080604052600436106100f55760003560e01c806342842e0e1161008f578063a0712d6811610061578063a0712d68146102c8578063a22cb465146102e8578063b88d4fde14610308578063c87b56dd14610328578063e985e9c51461034857005b806342842e0e146102535780636352211e1461027357806370a082311461029357806395d89b41146102b357005b8063095ea7b3116100c8578063095ea7b3146101bd57806312065fe0146101dd578063150b7a02146101fa57806323b872dd1461023357005b8062923f9e146100fe57806301ffc9a71461014357806306fdde0314610163578063081812fc1461018557005b366100fc57005b005b34801561010a57600080fd5b5061012e610119366004610dd6565b60066020526000908152604090205460ff1681565b60405190151581526020015b60405180910390f35b34801561014f57600080fd5b5061012e61015e366004610e05565b610368565b34801561016f57600080fd5b506101786103ba565b60405161013a9190610e72565b34801561019157600080fd5b506101a56101a0366004610dd6565b61044c565b6040516001600160a01b03909116815260200161013a565b3480156101c957600080fd5b506100fc6101d8366004610ea1565b610475565b3480156101e957600080fd5b50475b60405190815260200161013a565b34801561020657600080fd5b5061021a610215366004610ecb565b610484565b6040516001600160e01b0319909116815260200161013a565b34801561023f57600080fd5b506100fc61024e366004610f66565b6104a1565b34801561025f57600080fd5b506100fc61026e366004610f66565b610531565b34801561027f57600080fd5b506101a561028e366004610dd6565b610551565b34801561029f57600080fd5b506101ec6102ae366004610fa2565b61055c565b3480156102bf57600080fd5b506101786105a4565b3480156102d457600080fd5b506100fc6102e3366004610dd6565b6105b3565b3480156102f457600080fd5b506100fc610303366004610fbd565b6105fe565b34801561031457600080fd5b506100fc61032336600461100f565b610609565b34801561033457600080fd5b50610178610343366004610dd6565b610620565b34801561035457600080fd5b5061012e6103633660046110eb565b610695565b60006001600160e01b031982166380ac58cd60e01b148061039957506001600160e01b03198216635b5e139f60e01b145b806103b457506301ffc9a760e01b6001600160e01b03198316145b92915050565b6060600080546103c99061111e565b80601f01602080910402602001604051908101604052809291908181526020018280546103f59061111e565b80156104425780601f1061041757610100808354040283529160200191610442565b820191906000526020600020905b81548152906001019060200180831161042557829003601f168201915b5050505050905090565b6000610457826106c3565b506000828152600460205260409020546001600160a01b03166103b4565b6104808282336106fc565b5050565b600061048f84610709565b50630a85bd0160e11b95945050505050565b6001600160a01b0382166104d057604051633250574960e11b8152600060048201526024015b60405180910390fd5b60006104dd838333610744565b9050836001600160a01b0316816001600160a01b03161461052b576040516364283d7b60e01b81526001600160a01b03808616600483015260248201849052821660448201526064016104c7565b50505050565b61054c83838360405180602001604052806000815250610609565b505050565b60006103b4826106c3565b60006001600160a01b038216610588576040516322718ad960e21b8152600060048201526024016104c7565b506001600160a01b031660009081526003602052604090205490565b6060600180546103c99061111e565b60008181526006602052604090205460ff16156105d8576105d581600a611158565b90505b6000818152600660205260409020805460ff191660011790556105fb338261083d565b50565b610480338383610857565b6106148484846104a1565b61052b848484846108f6565b606061062b826106c3565b50600061064360408051602081019091526000815290565b90506000815111610663576040518060200160405280600081525061068e565b8061066d84610a1f565b60405160200161067e92919061117d565b6040516020818303038152906040525b9392505050565b6001600160a01b03918216600090815260056020908152604080832093909416825291909152205460ff1690565b6000818152600260205260408120546001600160a01b0316806103b457604051637e27328960e01b8152600481018490526024016104c7565b61054c8383836001610ab2565b60006107186000836000610744565b90506001600160a01b03811661048057604051637e27328960e01b8152600481018390526024016104c7565b6000828152600260205260408120546001600160a01b039081169083161561077157610771818486610bb8565b6001600160a01b038116156107af5761078e600085600080610ab2565b6001600160a01b038116600090815260036020526040902080546000190190555b6001600160a01b038516156107de576001600160a01b0385166000908152600360205260409020805460010190555b60008481526002602052604080822080546001600160a01b0319166001600160a01b0389811691821790925591518793918516917fddf252ad1be2c89b69c2b068fc378daa952ba7f163c4a11628f55a4df523b3ef91a4949350505050565b610480828260405180602001604052806000815250610c1c565b6001600160a01b03821661088957604051630b61174360e31b81526001600160a01b03831660048201526024016104c7565b6001600160a01b03838116600081815260056020908152604080832094871680845294825291829020805460ff191686151590811790915591519182527f17307eab39ab6107e8899845ad3d59bd9653f200f220920489ca2b5937696c31910160405180910390a3505050565b6001600160a01b0383163b1561052b57604051630a85bd0160e11b81526001600160a01b0384169063150b7a02906109389033908890879087906004016111ac565b6020604051808303816000875af1925050508015610973575060408051601f3d908101601f19168201909252610970918101906111e9565b60015b6109dc573d8080156109a1576040519150601f19603f3d011682016040523d82523d6000602084013e6109a6565b606091505b5080516000036109d457604051633250574960e11b81526001600160a01b03851660048201526024016104c7565b805181602001fd5b6001600160e01b03198116630a85bd0160e11b14610a1857604051633250574960e11b81526001600160a01b03851660048201526024016104c7565b5050505050565b60606000610a2c83610c33565b600101905060008167ffffffffffffffff811115610a4c57610a4c610ff9565b6040519080825280601f01601f191660200182016040528015610a76576020820181803683370190505b5090508181016020015b600019016f181899199a1a9b1b9c1cb0b131b232b360811b600a86061a8153600a8504945084610a8057509392505050565b8080610ac657506001600160a01b03821615155b15610b88576000610ad6846106c3565b90506001600160a01b03831615801590610b025750826001600160a01b0316816001600160a01b031614155b8015610b155750610b138184610695565b155b15610b3e5760405163a9fbf51f60e01b81526001600160a01b03841660048201526024016104c7565b8115610b865783856001600160a01b0316826001600160a01b03167f8c5be1e5ebec7d5bd14f71427d1e84f3dd0314c0f7b2291e5b200ac8c7c3b92560405160405180910390a45b505b5050600090815260046020526040902080546001600160a01b0319166001600160a01b0392909216919091179055565b610bc3838383610d0b565b61054c576001600160a01b038316610bf157604051637e27328960e01b8152600481018290526024016104c7565b60405163177e802f60e01b81526001600160a01b0383166004820152602481018290526044016104c7565b610c268383610d71565b61054c60008484846108f6565b60008072184f03e93ff9f4daa797ed6e38ed64bf6a1f0160401b8310610c725772184f03e93ff9f4daa797ed6e38ed64bf6a1f0160401b830492506040015b6d04ee2d6d415b85acef81000000008310610c9e576d04ee2d6d415b85acef8100000000830492506020015b662386f26fc100008310610cbc57662386f26fc10000830492506010015b6305f5e1008310610cd4576305f5e100830492506008015b6127108310610ce857612710830492506004015b60648310610cfa576064830492506002015b600a83106103b45760010192915050565b60006001600160a01b03831615801590610d695750826001600160a01b0316846001600160a01b03161480610d455750610d458484610695565b80610d6957506000828152600460205260409020546001600160a01b038481169116145b949350505050565b6001600160a01b038216610d9b57604051633250574960e11b8152600060048201526024016104c7565b6000610da983836000610744565b90506001600160a01b0381161561054c576040516339e3563760e11b8152600060048201526024016104c7565b600060208284031215610de857600080fd5b5035919050565b6001600160e01b0319811681146105fb57600080fd5b600060208284031215610e1757600080fd5b813561068e81610def565b60005b83811015610e3d578181015183820152602001610e25565b50506000910152565b60008151808452610e5e816020860160208601610e22565b601f01601f19169290920160200192915050565b60208152600061068e6020830184610e46565b80356001600160a01b0381168114610e9c57600080fd5b919050565b60008060408385031215610eb457600080fd5b610ebd83610e85565b946020939093013593505050565b600080600080600060808688031215610ee357600080fd5b610eec86610e85565b9450610efa60208701610e85565b935060408601359250606086013567ffffffffffffffff80821115610f1e57600080fd5b818801915088601f830112610f3257600080fd5b813581811115610f4157600080fd5b896020828501011115610f5357600080fd5b9699959850939650602001949392505050565b600080600060608486031215610f7b57600080fd5b610f8484610e85565b9250610f9260208501610e85565b9150604084013590509250925092565b600060208284031215610fb457600080fd5b61068e82610e85565b60008060408385031215610fd057600080fd5b610fd983610e85565b915060208301358015158114610fee57600080fd5b809150509250929050565b634e487b7160e01b600052604160045260246000fd5b6000806000806080858703121561102557600080fd5b61102e85610e85565b935061103c60208601610e85565b925060408501359150606085013567ffffffffffffffff8082111561106057600080fd5b818701915087601f83011261107457600080fd5b81358181111561108657611086610ff9565b604051601f8201601f19908116603f011681019083821181831017156110ae576110ae610ff9565b816040528281528a60208487010111156110c757600080fd5b82602086016020830137600060208483010152809550505050505092959194509250565b600080604083850312156110fe57600080fd5b61110783610e85565b915061111560208401610e85565b90509250929050565b600181811c9082168061113257607f821691505b60208210810361115257634e487b7160e01b600052602260045260246000fd5b50919050565b80820281158282048414176103b457634e487b7160e01b600052601160045260246000fd5b6000835161118f818460208801610e22565b8351908301906111a3818360208801610e22565b01949350505050565b6001600160a01b03858116825284166020820152604081018390526080606082018190526000906111df90830184610e46565b9695505050505050565b6000602082840312156111fb57600080fd5b815161068e81610def56fea2646970667358221220509fc980a219d59bc05de9640913a1e3758252fb2552bd0dea8711d66002e65d64736f6c63430008180033","linkReferences":{}},"methodIdentifiers":{"approve(address,uint256)":"095ea7b3","balanceOf(address)":"70a08231","getApproved(uint256)":"081812fc","getBalance()":"12065fe0","isApprovedForAll(address,address)":"e985e9c5","mint(uint256)":"a0712d68","name()":"06fdde03","onERC721Received(address,address,uint256,bytes)":"150b7a02","ownerOf(uint256)":"6352211e","safeTransferFrom(address,address,uint256)":"42842e0e","safeTransferFrom(address,address,uint256,bytes)":"b88d4fde","setApprovalForAll(address,bool)":"a22cb465","supportsInterface(bytes4)":"01ffc9a7","symbol()":"95d89b41","tokenExists(uint256)":"00923f9e","tokenURI(uint256)":"c87b56dd","transferFrom(address,address,uint256)":"23b872dd"},"id":11}